:100000000C942A000C9447000C9447000C94470071
:100010000C9447000C9447000C9447000C94470044
:100020000C9447000C9447000C9447000C94470034
:100030000C9447000C9404010C9447000C94470066
:100040000C9447000C9447000C9447000C94470014
:100050000C94470011241FBECFE5D8E0DEBFCDBF12
:1000600010E0A0E6B0E0ECEEF8E002C005900D92E2
:10007000A838B107D9F721E0A8E8B0E001C01D9287
:10008000A83AB207E1F70E94A6000C9474040C94FD
:1000900000001ABA87E886B980E487B908958770A6
:1000A000806487B9369A349BFECF349A24B185B1E7
:1000B00090E0982F8827820F911D08958FE39CE987
:1000C00097BD86BD86B597B5805D974099BD88BDC3
:1000D00080E690E00E94180186B597B5885B9B404A
:1000E00099BD88BD80E690E00E9418012FEF83ED56
:1000F00090E3215080409040E1F700C0000086B5B9
:1001000097B5805A9F4099BD88BD85E690E00E94D2
:1001100018012FEF83ED90E3215080409040E1F7EC
:1001200000C0000086B597B5885B9B4099BD88BD2F
:100130008AE690E00E9418012FEF83ED90E32150B2
:1001400080409040E1F700C000000895CF93DF9316
:10015000CDB7DEB7DA950FB6F894DEBF0FBECDBFD0
:100160000E942701579A789480E181BB1FBC1EBC76
:100170008FB582638FBD8EB58A618EBD0E945E0091
:100180000E9449000F2EFFE6EF2EF0E0FF2EF02D2B
:100190008E010F5F1F4F0F2E88248A94F3E09F2E4D
:1001A000A12CB12CF02D81E00E944F00C82ED92E39
:1001B0009F938F93FF92EF921F930F930E948A0158
:1001C000C8010E94180120ED37E0AC2DBD2D0E9422
:1001D0005201A50194010E943301BA01A9014053C3
:1001E000584F6F4F7F4F50939D0140939C0186B5B0
:1001F00097B5841B950B99BD88BD0F900F900F90FC
:100200000F900F900F90CFCF1F920F920FB60F92BB
:1002100011248F938CB18CB98F910F900FBE0F90DA
:100220001F9018955D9BFECF8CB95E9BFECF089505
:10023000CF93DF93EC018881882331F021960E94CF
:10024000120189918111FBCFDF91CF91089587E64B
:1002500089B910BC88E18AB986E880BD86E790E05C
:100260000E9418010895052E97FB1EF400940E9429
:100270004A0157FD07D00E94590107FC03D04EF4F4
:100280000C944A0150954095309521953F4F4F4F22
:100290005F4F089590958095709561957F4F8F4F32
:1002A0009F4F08950E947B01B7FF0895821B930B17
:1002B0000895A1E21A2EAA1BBB1BFD010DC0AA1FA7
:1002C000BB1FEE1FFF1FA217B307E407F50720F0BF
:1002D000A21BB30BE40BF50B661F771F881F991F3A
:1002E0001A9469F760957095809590959B01AC0183
:1002F000BD01CF010895A29FB001B39FC001A39F8C
:10030000700D811D1124911DB29F700D811D11244E
:10031000911D0895AEE0B0E0E0E9F1E00C944B04EB
:100320000D891E8986E08C831A8309838FEF9FE7EE
:100330009E838D83AE01475E5F4F6F89788DCE01BE
:1003400001960E94AC01EF81F885E00FF11F108249
:100350002E96E4E00C946704ABE0B0E0E2EBF1E051
:100360000C943D046C017B018A01FC01178216820A
:10037000838181FFCCC1CE0101963C01F6019381BE
:10038000F70193FD859193FF81917F01882309F403
:10039000BAC1853239F493FD859193FF81917F0134
:1003A000853229F4B60190E00E94A303E7CF912C97
:1003B000212C312CFFE1F315D8F08B3279F038F491
:1003C000803279F08332A1F4232D20611DC08D325B
:1003D00061F0803369F4232D216016C0832D826083
:1003E000382EE32DE4603E2E2AC0F32DF8601DC0A8
:1003F00037FC2DC020ED280F2A3040F08E32B9F4A2
:1004000036FC81C1232D2064322E19C036FE06C071
:100410008AE0989E200D1124922E11C0EAE02E9EB3
:10042000200D1124222EF32DF0623F2E08C08C36B1
:1004300021F4832D8068382E02C0883641F4F701FC
:1004400093FD859193FF81917F018111B3CF982F07
:100450009F7D9554933028F40C5F1F4F9FE3998341
:100460000DC0833631F0833771F0833509F059C000
:1004700021C0F801808189830E5F1F4F88248394F7
:10048000912C530113C02801F2E04F0E511CF801CA
:10049000A080B18036FE03C0692D70E002C06FEF0E
:1004A0007FEFC5010E9498034C018201F32DFF7775
:1004B0003F2E16C0280122E0420E511CF801A080F8
:1004C000B18036FE03C0692D70E002C06FEF7FEF90
:1004D000C5010E948D034C01F32DF0683F2E82016F
:1004E00033FC1BC0822D90E088169906B0F4B6014B
:1004F00080E290E00E94A3032A94F4CFF50137FC38
:10050000859137FE81915F01B60190E00E94A303BF
:1005100021102A9421E0821A91088114910471F724
:10052000E8C0843611F0893641F5F80137FE07C07E
:1005300060817181828193810C5F1F4F08C060814F
:100540007181072E000C880B990B0E5F1F4FF32D46
:10055000FF763F2E97FF09C0909580957095619525
:100560007F4F8F4F9F4FF0683F2E2AE030E0A3016E
:100570000E94DF03882E861845C0853731F4232D6D
:100580002F7EB22E2AE030E025C0932D997FB92E20
:100590008F36C1F018F4883579F0B5C0803719F07E
:1005A000883721F0B0C0E92FE061BE2EB4FE0DC047
:1005B000FB2DF460BF2E09C034FE0AC0292F26602F
:1005C000B22E06C028E030E005C020E130E002C0D5
:1005D00020E132E0F801B7FE07C0608171818281BD
:1005E00093810C5F1F4F06C06081718180E090E0B5
:1005F0000E5F1F4FA3010E94DF03882E8618FB2D7C
:10060000FF773F2E36FE0DC0232D2E7FA22E89149C
:1006100058F434FE0BC032FC09C0832D8E7EA82E08
:1006200005C0B82CA32C03C0B82C01C0B92CA4FE63
:100630000FC0FE01E80DF11D8081803321F49A2D59
:10064000997EA92E09C0A2FE06C0B394B39404C03B
:100650008A2D867809F0B394A3FC11C0A0FE06C0D1
:10066000B21488F4280C922C9B180EC0B21460F4BB
:10067000B60180E290E00E94A303B394F7CFB214D6
:1006800018F42B1802C0982C212CA4FE10C0B6011F
:1006900080E390E00E94A303A2FE17C0A1FC03C068
:1006A00088E790E002C088E590E0B6010CC08A2D92
:1006B000867859F0A1FE02C08BE201C080E2A7FC5F
:1006C0008DE2B60190E00E94A303891438F4B601CC
:1006D00080E390E00E94A3039A94F7CF8A94F301F9
:1006E000E80DF11D8081B60190E00E94A303811006
:1006F000F5CF222009F442CEB60180E290E00E94BC
:10070000A3032A94F6CFF6018681978102C08FEF6A
:100710009FEF2B96E2E10C945904FC010590615087
:1007200070400110D8F7809590958E0F9F1F089507
:10073000FC016150704001900110D8F780959095B0
:100740008E0F9F1F08950F931F93CF93DF93FB018D
:10075000238121FD03C08FEF9FEF2CC022FF16C025
:1007600046815781248135814217530744F4A08183
:10077000B1819D012F5F3F4F318320838C93268170
:1007800037812F5F3F4F3783268314C08B01EC01E5
:10079000FB010084F185E02D0995892BE1F6D80154
:1007A00016968D919C911797019617969C938E9310
:1007B0001697CE01DF91CF911F910F910895FA0105
:1007C000AA27283051F1203181F1E8946F936E7F90
:1007D0006E5F7F4F8F4F9F4FAF4FB1E03ED0B4E081
:1007E0003CD0670F781F891F9A1FA11D680F791FC2
:1007F0008A1F911DA11D6A0F711D811D911DA11DD3
:1008000020D009F468943F912AE0269F11243019E2
:10081000305D3193DEF6CF010895462F4770405D7D
:100820004193B3E00FD0C9F7F6CF462F4F70405D2C
:100830004A3318F0495D31FD4052419302D0A9F787
:10084000EACFB4E0A6959795879577956795BA9581
:10085000C9F700976105710508959B01AC010A2E47
:1008600006945795479537952795BA95C9F7620F1E
:10087000731F841F951FA01D08952F923F924F92C2
:100880005F926F927F928F929F92AF92BF92CF9220
:10089000DF92EF92FF920F931F93CF93DF93CDB729
:1008A000DEB7CA1BDB0B0FB6F894DEBF0FBECDBFA1
:1008B00009942A88398848885F846E847D848C8472
:1008C0009B84AA84B984C884DF80EE80FD800C817B
:1008D0001B81AA81B981CE0FD11D0FB6F894DEBF5E
:0C08E0000FBECDBFED010895F894FFCFCE
:1008EC003330303000333530300034303030005954
:1008FC003D25640D0A005541525420737461727485
:08090C0065642E2E0D0A0000A7
:00000001FF
